{
  "contractName": "Auction",
  "abi": [
    {
      "inputs": [],
      "stateMutability": "nonpayable",
      "type": "constructor"
    },
    {
      "inputs": [],
      "name": "highestBid",
      "outputs": [
        {
          "internalType": "uint256",
          "name": "",
          "type": "uint256"
        }
      ],
      "stateMutability": "view",
      "type": "function",
      "constant": true
    },
    {
      "inputs": [],
      "name": "highestBidder",
      "outputs": [
        {
          "internalType": "address",
          "name": "",
          "type": "address"
        }
      ],
      "stateMutability": "view",
      "type": "function",
      "constant": true
    },
    {
      "inputs": [
        {
          "internalType": "address",
          "name": "",
          "type": "address"
        }
      ],
      "name": "userBalances",
      "outputs": [
        {
          "internalType": "uint256",
          "name": "",
          "type": "uint256"
        }
      ],
      "stateMutability": "view",
      "type": "function",
      "constant": true
    },
    {
      "stateMutability": "payable",
      "type": "receive",
      "payable": true
    },
    {
      "inputs": [],
      "name": "bid",
      "outputs": [],
      "stateMutability": "payable",
      "type": "function",
      "payable": true
    },
    {
      "inputs": [],
      "name": "withdraw",
      "outputs": [],
      "stateMutability": "nonpayable",
      "type": "function"
    },
    {
      "inputs": [],
      "name": "getContractBalance",
      "outputs": [
        {
          "internalType": "uint256",
          "name": "",
          "type": "uint256"
        }
      ],
      "stateMutability": "view",
      "type": "function",
      "constant": true
    },
    {
      "inputs": [
        {
          "internalType": "address",
          "name": "_user",
          "type": "address"
        }
      ],
      "name": "getBalance",
      "outputs": [
        {
          "internalType": "uint256",
          "name": "",
          "type": "uint256"
        }
      ],
      "stateMutability": "view",
      "type": "function",
      "constant": true
    },
    {
      "inputs": [
        {
          "internalType": "address",
          "name": "_bidder",
          "type": "address"
        }
      ],
      "name": "getBidderBids",
      "outputs": [
        {
          "internalType": "uint256",
          "name": "",
          "type": "uint256"
        }
      ],
      "stateMutability": "view",
      "type": "function",
      "constant": true
    },
    {
      "inputs": [],
      "name": "getHighestBidder",
      "outputs": [
        {
          "internalType": "address",
          "name": "",
          "type": "address"
        }
      ],
      "stateMutability": "view",
      "type": "function",
      "constant": true
    },
    {
      "inputs": [],
      "name": "getHighestBid",
      "outputs": [
        {
          "internalType": "uint256",
          "name": "",
          "type": "uint256"
        }
      ],
      "stateMutability": "view",
      "type": "function",
      "constant": true
    },
    {
      "inputs": [
        {
          "internalType": "address",
          "name": "_addr",
          "type": "address"
        }
      ],
      "name": "isnotOwner",
      "outputs": [
        {
          "internalType": "bool",
          "name": "",
          "type": "bool"
        }
      ],
      "stateMutability": "view",
      "type": "function",
      "constant": true
    }
  ],
  "bytecode": "0x608060405230600360006101000a81548173ffffffffffffffffffffffffffffffffffffffff021916908373ffffffffffffffffffffffffffffffffffffffff16021790555034801561005157600080fd5b50600060018190555033600260006101000a81548173ffffffffffffffffffffffffffffffffffffffff021916908373ffffffffffffffffffffffffffffffffffffffff160217905550610a28806100aa6000396000f3fe60806040526004361061009f5760003560e01c80634979440a116100645780634979440a14610171578063625d8e781461019c5780636f9fb98a146101d957806391f9015714610204578063d57bde791461022f578063f8b2cb4f1461025a576100a6565b80623495a4146100ab57806312d759ad146100d65780631998aeef1461011357806326224c641461011d5780633ccfd60b1461015a576100a6565b366100a657005b600080fd5b3480156100b757600080fd5b506100c0610297565b6040516100cd91906107e7565b60405180910390f35b3480156100e257600080fd5b506100fd60048036038101906100f89190610705565b6102c0565b60405161010a9190610802565b60405180910390f35b61011b61031b565b005b34801561012957600080fd5b50610144600480360381019061013f9190610705565b610434565b604051610151919061089d565b60405180910390f35b34801561016657600080fd5b5061016f61044c565b005b34801561017d57600080fd5b50610186610611565b604051610193919061089d565b60405180910390f35b3480156101a857600080fd5b506101c360048036038101906101be9190610705565b61061b565b6040516101d0919061089d565b60405180910390f35b3480156101e557600080fd5b506101ee610664565b6040516101fb919061089d565b60405180910390f35b34801561021057600080fd5b506102196106a5565b60405161022691906107e7565b60405180910390f35b34801561023b57600080fd5b506102446106c9565b604051610251919061089d565b60405180910390f35b34801561026657600080fd5b50610281600480360381019061027c9190610705565b6106cf565b60405161028e919061089d565b60405180910390f35b60008060009054906101000a900473ffffffffffffffffffffffffffffffffffffffff16905090565b6000600260009054906101000a900473ffffffffffffffffffffffffffffffffffffffff1673ffffffffffffffffffffffffffffffffffffffff168273ffffffffffffffffffffffffffffffffffffffff1614159050919050565b610324336102c0565b610363576040517f08c379a000000000000000000000000000000000000000000000000000000000815260040161035a9061087d565b60405180910390fd5b60015434116103a7576040517f08c379a000000000000000000000000000000000000000000000000000000000815260040161039e9061081d565b60405180910390fd5b34600460003373ffffffffffffffffffffffffffffffffffffffff1673ffffffffffffffffffffffffffffffffffffffff1681526020019081526020016000208190555034600181905550336000806101000a81548173ffffffffffffffffffffffffffffffffffffffff021916908373ffffffffffffffffffffffffffffffffffffffff160217905550565b60046020528060005260406000206000915090505481565b610455336102c0565b610494576040517f08c379a000000000000000000000000000000000000000000000000000000000815260040161048b9061087d565b60405180910390fd5b600154600460003373ffffffffffffffffffffffffffffffffffffffff1673ffffffffffffffffffffffffffffffffffffffff1681526020019081526020016000205410610517576040517f08c379a000000000000000000000000000000000000000000000000000000000815260040161050e9061083d565b60405180910390fd5b3373ffffffffffffffffffffffffffffffffffffffff166108fc600460003373ffffffffffffffffffffffffffffffffffffffff1673ffffffffffffffffffffffffffffffffffffffff168152602001908152602001600020549081150290604051600060405180830381858888f193505050506105ca576040517f08c379a00000000000000000000000000000000000000000000000000000000081526004016105c19061085d565b60405180910390fd5b6000600460003373ffffffffffffffffffffffffffffffffffffffff1673ffffffffffffffffffffffffffffffffffffffff16815260200190815260200160002081905550565b6000600154905090565b6000600460008373ffffffffffffffffffffffffffffffffffffffff1673ffffffffffffffffffffffffffffffffffffffff168152602001908152602001600020549050919050565b6000600360009054906101000a900473ffffffffffffffffffffffffffffffffffffffff1673ffffffffffffffffffffffffffffffffffffffff1631905090565b60008054906101000a900473ffffffffffffffffffffffffffffffffffffffff1681565b60015481565b60008173ffffffffffffffffffffffffffffffffffffffff16319050919050565b6000813590506106ff816109db565b92915050565b60006020828403121561071757600080fd5b6000610725848285016106f0565b91505092915050565b610737816108c9565b82525050565b610746816108db565b82525050565b60006107596011836108b8565b915061076482610911565b602082019050919050565b600061077c6036836108b8565b91506107878261093a565b604082019050919050565b600061079f6012836108b8565b91506107aa82610989565b602082019050919050565b60006107c26014836108b8565b91506107cd826109b2565b602082019050919050565b6107e181610907565b82525050565b60006020820190506107fc600083018461072e565b92915050565b6000602082019050610817600083018461073d565b92915050565b600060208201905081810360008301526108368161074c565b9050919050565b600060208201905081810360008301526108568161076f565b9050919050565b6000602082019050818103600083015261087681610792565b9050919050565b60006020820190508181036000830152610896816107b5565b9050919050565b60006020820190506108b260008301846107d8565b92915050565b600082825260208201905092915050565b60006108d4826108e7565b9050919050565b60008115159050919050565b600073ffffffffffffffffffffffffffffffffffffffff82169050919050565b6000819050919050565b7f596f75206861766520746f207261697365000000000000000000000000000000600082015250565b7f596f752063616e6e6e6f74207769746864726177206265636175736520796f7560008201527f2061726520746865206869676865737442696464657200000000000000000000602082015250565b7f436f756c64206e6f742077697468647261770000000000000000000000000000600082015250565b7f596f7520617265206e6f74206120626964646572000000000000000000000000600082015250565b6109e4816108c9565b81146109ef57600080fd5b5056fea26469706673582212207798b7e83ab67d179aa2b9ea64dd0e04ad45fbcb37b856d9a39fcf00a749404364736f6c63430008030033",
  "immutableReferences": {},
  "source": "// SPDX-License-Identifier: GPL-3.0\n\npragma solidity >=0.7.0 <0.9.0;\n\ncontract Auction{\n    address public highestBidder;\n    uint public highestBid;\n    address owner;\n    address payable self = payable(address(this));\n    \n    \n    constructor(){\n        highestBid = 0;\n        owner = msg.sender;\n    }\n    \n    \n    mapping(address => uint) public userBalances;\n    \n    \n    modifier onlyBidder(){\n        require(isnotOwner(msg.sender),\"You are not a bidder\");\n        _;\n    }\n    \n    function bid() public payable onlyBidder{\n        \n        require(msg.value > highestBid,\"You have to raise\");\n        \n        userBalances[msg.sender] = msg.value;\n        \n        highestBid = msg.value;\n\n        highestBidder = msg.sender;\n        \n    }\n    \n    function withdraw() public onlyBidder{\n        \n        require(userBalances[msg.sender] < highestBid,\"You cannnot withdraw because you are the highestBidder\");\n        \n        \n        require(payable(msg.sender).send(userBalances[msg.sender]),\"Could not withdraw\");\n\n        userBalances[msg.sender] = 0;\n        \n        \n    } \n    \n    function getContractBalance() public view returns(uint){\n        return self.balance;\n    }\n    \n    \n    function getBalance(address _user) public view returns(uint){\n        return address(_user).balance;\n    }\n    \n    function getBidderBids(address _bidder) public view returns(uint){\n        return userBalances[_bidder];\n    }\n    \n    function getHighestBidder() public view returns(address){\n        return highestBidder;\n    }\n    \n    function getHighestBid() public view returns(uint){\n        return highestBid;\n    }\n    \n    function isnotOwner(address _addr) public view returns(bool){\n        return (_addr != owner);\n        \n    }\n    \n    receive() external payable{}\n}",
  "sourcePath": "/home/menios/solidity/auction-app/contracts/Auction.sol",
  "compiler": {
    "name": "solc",
    "version": "0.8.3+commit.8d00100c.Emscripten.clang"
  },
  "schemaVersion": "3.4.1",
  "updatedAt": "2021-05-31T14:57:46.352Z",
  "networkType": "ethereum",
  "devdoc": {
    "kind": "dev",
    "methods": {},
    "version": 1
  },
  "userdoc": {
    "kind": "user",
    "methods": {},
    "version": 1
  }
}